:1000000080312B28073008007E14803140017F08A2
:10001000A4004E01961A8C1E1128A6315E2680314E
:1000200026280B1F2628191B0F1F1D2842016D08AB
:100030008A006C080A0080312628991B8F1F262809
:1000400042016B088A006A080A00803140012408D6
:10005000FF007E10090080312D28ED308400AF3084
:100060008500DF308600003087000930AF318D27F2
:100070008031FB01FC01FD01A030840000308500CF
:100080002630AF3187278031203084000130850051
:100090003E30AF3187278031A030840001308500A9
:1000A0003D30AF3187278031203084000230850019
:1000B0004B30AF3187278031A0308400023085007B
:1000C0004030AF31872780312030840003308500F5
:1000D0004030AF3187277E1040018831002800343E
:1000E0000034003400340034003400340034003470
:1000F0000034003400340034003400340034003460
:1001000000340034F8340034003400340034003457
:1001100000340034333430340034003400340034DC
:1001200010340C34063410340C34063400340034EB
:1001300000340034003400340034003400344034DF
:10014000C03478344034C03478344034003404341B
:100150003F34043404343F34043404340034003471
:1001600070348834FC3408343034003400340034C3
:1001700018342034FF3421341E3400340034F03479
:100180000834F0340034E0341834003400340034DF
:1001900021341C3403341E3421341E340034003422
:1001A000F0340834883470340034003400341E34A1
:1001B00021342334243419342734213410341034B6
:1001C00016340E340034003400340034003400346B
:1001D000003400340034003400340034003400347F
:1001E00000340034E0341834043402340034003471
:1001F00000340034073418342034403400340034E0
:10020000023404341834E034003400340034003450
:10021000403420341834073400340034003440347F
:1002200040348034F034803440344034003402347C
:10023000023401340F340134023402340034003407
:1002400000340034F034003400340034003401341D
:10025000013401341F3401340134013400340034DA
:10026000003400340034003400340034003480346E
:10027000B0347034003400340034003400340034BE
:1002800000340034003400340034003400340034CE
:1002900001340134013401340134013401340034B7
:1002A00000340034003400340034003400340034AE
:1002B000303430340034003400340034003400343E
:1002C0000034003400348034603418340434003492
:1002D00060341834063401340034003400340034FF
:1002E000E0341034083408341034E034003400347E
:1002F0000F3410342034203410340F3400340034E0
:1003000010341034F8340034003400340034003435
:10031000203420343F34203420340034003400347E
:1003200070340834083408348834703400340034AD
:10033000303428342434223421343034003400342E
:10034000303408348834883448343034003400344D
:10035000183420342034203411340E340034003466
:100360000034C03420341034F83400340034003405
:1003700007340434243424343F3424340034003427
:10038000F8340834883488340834083400340034AD
:10039000193421342034203411340E340034003424
:1003A000E034103488348834183400340034003495
:1003B0000F3411342034203411340E34003400341E
:1003C000383408340834C83438340834003400343D
:1003D000003400343F34003400340034003400343E
:1003E000703488340834083488347034003400346D
:1003F0001C3422342134213422341C34003400349F
:10040000E0341034083408341034E034003400345C
:10041000003431342234223411340F3400340034A7
:1004200000340034C034C0340034003400340034AC
:1004300000340034303430340034003400340034BC
:10044000003400348034003400340034003400348C
:10045000003480346034003400340034003400341C
:1004600000348034403420341034083400340034F4
:10047000013402340434083410342034003440345D
:100480004034403440344034403440340034043448
:1004900004340434043404340434043400340034A4
:1004A00008341034203440348034003400340034B4
:1004B000203410340834043402340134003400345D
:1004C00070344834083408340834F03400340034CC
:1004D0000034003430343634013400340034C03455
:1004E0003034C8342834E8341034E034003407346D
:1004F000183427342434233414340B3400340034B7
:100500000034C0343834E034003400340034203453
:100510003C34233402340234273438342034083451
:10052000F83488348834883470340034003420340B
:100530003F3420342034203411340E340034C0349D
:10054000303408340834083408343834003407347C
:100550001834203420342034103408340034083463
:10056000F8340834083408341034E03400342034CB
:100570003F3420342034203410340F340034083415
:10058000F83488348834E8340834103400342034A3
:100590003F342034203423342034183400340834D9
:1005A000F83488348834E834083410340034203483
:1005B0003F34203400340334003400340034C03479
:1005C0003034083408340834383400340034073404
:1005D00018342034203422341E34023400340834D9
:1005E000F8340834003400340834F8340834203443
:1005F0003F3421340134013421343F342034003479
:1006000008340834F8340834083400340034003432
:10061000203420343F34203420340034003400347B
:10062000003408340834F834083408340034C03452
:100630008034803480347F34003400340034083413
:10064000F8348834C0342834183408340034203462
:100650003F34203401342634383420340034083414
:10066000F8340834003400340034003400342034CA
:100670003F342034203420342034303400340834E3
:10068000F834F8340034F834F834083400342034C2
:100690003F3400343F3400343F34203400340834D5
:1006A000F8343034C03400340834F834083420349A
:1006B0003F3420340034073418343F340034E034FD
:1006C00010340834083408341034E03400340F3463
:1006D000103420342034203410340F3400340834E3
:1006E000F8340834083408340834F0340034203442
:1006F0003F34213401340134013400340034E03417
:1007000010340834083408341034E03400340F3422
:10071000183424342434383450344F3400340834FA
:10072000F834883488348834883470340034203481
:100730003F342034003403340C343034203400345B
:1007400070348834083408340834383400340034C1
:10075000383420342134213422341C340034183409
:1007600008340834F83408340834183400340034B9
:10077000003420343F342034003400340034083452
:10078000F8340834003400340834F83408340034C1
:100790001F3420342034203420341F3400340834F3
:1007A0007834883400340034C834383408340034A1
:1007B0000034073438340E34013400340034F83453
:1007C00008340034F83400340834F8340034033486
:1007D0003C340734003407343C34033400340834E8
:1007E0001834683480348034683418340834203441
:1007F00030342C34033403342C3430342034083473
:100800003834C8340034C834383408340034003440
:10081000003420343F3420340034003400341034A9
:10082000083408340834C8343834083400342034E8
:100830003834263421342034203418340034003441
:1008400000340034FE340234023402340034003404
:10085000003400347F3440344034403400340034B9
:100860000C343034C03400340034003400340034EC
:1008700000340034013406343834C03400340034D9
:10088000023402340234FE340034003400340034C4
:100890004034403440347F34003400340034003479
:1008A000003404340234023402340434003400349A
:1008B0000034003400340034003400340034003498
:1008C0000034003400340034003400340034803408
:1008D00080348034803480348034803480340034F8
:1008E00000340C34123412340C340034003400342C
:1008F0000034003400340034003400340034003458
:100900000034803480348034803400340034003447
:10091000193424342234223422343F34203408342D
:10092000F83400348034803400340034003400342F
:100930003F3411342034203411340E340034003468
:100940000034003480348034803400340034003487
:100950000E34113420342034203411340034003467
:1009600000340034803480348834F8340034003467
:100970000E3411342034203410343F342034003409
:1009800000348034803480348034003400340034C7
:100990001F342234223422342234133400340034FD
:1009A00080348034F0348834883488341834003407
:1009B000203420343F3420342034003400340034D8
:1009C0000034803480348034803480340034003407
:1009D0006B34943494349434933460340034083455
:1009E000F8340034803480348034003400342034CF
:1009F0003F3421340034003420343F342034003478
:100A00008034983498340034003400340034003496
:100A1000203420343F342034203400340034003477
:100A20000034003480349834983400340034003476
:100A3000C0348034803480347F340034003408344F
:100A4000F83400340034803480348034003420346E
:100A50003F34243402342D34303420340034003414
:100A600008340834F83400340034003400340034DE
:100A7000203420343F342034203400340034803497
:100A800080348034803480348034803400342034A6
:100A90003F34203400343F34203400343F34803439
:100AA0008034003480348034803400340034203486
:100AB0003F3421340034003420343F3420340034B7
:100AC0000034803480348034803400340034003486
:100AD0001F3420342034203420341F340034803438
:100AE0008034003480348034003400340034803466
:100AF000FF34A1342034203411340E340034003457
:100B00000034003480348034803480340034003445
:100B10000E34113420342034A034FF348034803437
:100B20008034803400348034803480340034203485
:100B300020343F3421342034003401340034003474
:100B40000034803480348034803480340034003485
:100B50003334243424342434243419340034003419
:100B600080348034E0348034803400340034003405
:100B7000003400341F3420342034003400348034F6
:100B80008034003400340034803480340034003445
:100B90001F3420342034203410343F342034803447
:100BA0008034803400340034803480348034003425
:100BB00001340E34303408340634013400348034C7
:100BC00080340034803400348034803480340F34F6
:100BD00030340C3403340C3430340F3400340034EB
:100BE00080348034003480348034803400340034E5
:100BF000203431342E340E343134203400348034F7
:100C00008034803400340034803480348034803444
:100C100081348E3470341834063401340034003496
:100C20008034803480348034803480340034003424
:100C3000213430342C342234213430340034003424
:100C400000340034003480347C3402340234003404
:100C500000340034003400343F3440344034003435
:100C6000003400340034FF340034003400340034E5
:100C7000003400340034FF340034003400340034D5
:100C8000023402347C3480340034003400340034C4
:100C9000403440343F3400340034003400340034F5
:100CA0000634013401340234023404340434003490
:100CB0000034003400340034003400340034AE30EA
:100CC0004001AB000030AC000130AD000030AE00A0
:100CD000A031C620863100304001AB00AC000130AD
:100CE000AD000030AE00A031C6208631103040018A
:100CF000AB000030AC000130AD000030AE00A031E0
:100D0000C620863140304001AB000030AC000130DD
:100D1000AD000030AE00A031C6208631B0304001B9
:100D2000AB000030AC000130AD000030AE00A031AF
:100D3000C620863181304001AB000030AC0001306C
:100D4000AD000030AE00A031C6208631FF3040013A
:100D5000AB000030AC000130AD000030AE00A0317F
:100D6000C6208631A1304001AB000030AC0001301C
:100D7000AD000030AE00A031C6208631A630400163
:100D8000AB000030AC000130AD000030AE00A0314F
:100D9000C6208631A8304001AB000030AC000130E5
:100DA000AD000030AE00A031C62086313F3040019A
:100DB000AB000030AC000130AD000030AE00A0311F
:100DC000C6208631C8304001AB000030AC00013095
:100DD000AD000030AE00A031C6208631D3304001D6
:100DE000AB000030AC000130AD000030AE00A031EF
:100DF000C620863100304001AB00AC000130AD00B0
:100E00000030AE00A031C6208631D5304001AB00A5
:100E10000030AC000130AD000030AE00A031C62083
:100E2000863180304001AB000030AC000130AD00B5
:100E30000030AE00A031C6208631D9304001AB0071
:100E40000030AC000130AD000030AE00A031C62053
:100E50008631F1304001AB000030AC000130AD0014
:100E60000030AE00A031C6208631DA304001AB0040
:100E70000030AC000130AD000030AE00A031C62023
:100E8000863112304001AB000030AC000130AD00C3
:100E90000030AE00A031C6208631DB304001AB000F
:100EA0000030AC000130AD000030AE00A031C620F3
:100EB000863130304001AB000030AC000130AD0075
:100EC0000030AE00A031C62086318D304001AB002D
:100ED0000030AC000130AD000030AE00A031C620C3
:100EE000863114304001AB000030AC000130AD0061
:100EF0000030AE00A031C6208631AF304001AB00DB
:100F00000030AC000130AD000030AE00A031C62092
:100F1000080040012608B3002508B2002808B500E3
:100F20002708B40025082604031908002708280408
:100F30000319080033083502031DA02F32083402BC
:100F40000318B02F29083407AB002A08353DAC0040
:100F500033082C02031DAE2F32082B020318D32FA7
:100F6000B601B7012A083702031DB82F2908360237
:100F7000031808003408360784003508373D85001B
:100F80000008AB0036083207AC003708333DAD002F
:100F90002C0886002D0887002B0881000130B60739
:100FA0000030B73DB22F2A08B7002908B60036082E
:100FB0003704031908003608FF3EAB00FF30373D09
:100FC000AC0034082B07840035082C3D8500000850
:100FD000AD003608FF3EAE00FF30373DAF002E08B3
:100FE0003207B0002F08333DB100300886003108C9
:100FF00087002D0881000130B6020030B73BD72FA3
:10100000A0315120883140011C1029304101DE00FF
:101010009630DD007F30890B0B28DD0B0B28DE0BB3
:101020000B2886315F268831A7316F278831400130
:101030001C14A031882088318B170B17A031DC20BD
:10104000883195312525883141013F03031D312821
:1010500067088D314F2588314101BF01A73128270D
:101060008831A1318F218831A3319023883141010A
:10107000330893315523883121284001E200DF01F4
:1010800008305A06031D4628063047280830DB0082
:101090005B08E000D81FE128D709D809D70A03194F
:1010A000D80A5608DB005B08B4002D30DC005C0871
:1010B000B5005A08DD005D08B600620892317B2257
:1010C00088314001E3015908630203180800003029
:1010D000CF000030CE000030CD000A30CC006303DA
:1010E000FF3A5907FF3EDB005B08B1000A30A4312C
:1010F000B924883140013408C1003308C0003208E7
:10110000BF003108BE005708C2005808C300890D4F
:10111000893B8909C400C5009231282288314001E9
:101120004108D3004008D2003F08D1003E08D0005B
:10113000A6319F26883140014C08DC005C08E100A4
:101140005F08031DBF285908FF3EDB00FF3003186E
:101150000030DC005C08803A803C031DB1285B084D
:1011600063020318BF2840016108031DBD2856080B
:10117000DB005B08B4002030C628DF01DF0A400135
:101180005608DB005B08B4006108303EDC005C08F8
:10119000B5005A08DD005D08B6006008DE005E0894
:1011A000A5006308013EA031632088314001620739
:1011B00092317B22883101304001DB005B08E3077C
:1011C0006328E30159086302031808000030CF00C8
:1011D0000030CE000030CD000A30CC006303FF3A6F
:1011E0005907FF3EDB005B08B1000A30A431B92487
:1011F000883140013408C1003308C0003208BF0004
:101200003108BE005708C2005808C300890D893B49
:101210008909C400C5009231282288314001410863
:10122000D3004008D2003F08D1003E08D000A631CC
:101230009F26883140014C08DC005C08E1005F0813
:10124000031D3E295908FF3EDB00FF300318003024
:10125000DC005C08803A803C031D30295B08630297
:1012600003183E2940016108031D3C295608DB0094
:101270005B08B40020304529DF01DF0A4001560831
:10128000DB005B08B4006108303EDC005C08B500A0
:101290005A08DD005D08B6006308DE005E08A500A0
:1012A0006008A031632088314001620792317B22BF
:1012B000883101304001DB005B08E307E228400190
:1012C000E90069088600013087000103031D08005A
:1012D0000630E4006408D6001430D7000030D8008F
:1012E0000230E5006508D9001030E6006608DA0033
:1012F000003088313D20893106304001E400640827
:10130000D600690A8600013087000108E500E60181
:101310006508D7006608D8000230E7006708D900E2
:101320001030E8006808DA00103088313D2089313B
:1013300006304001E4006408B4005F30E500650851
:10134000B5000830E6006608B600203092317B22F6
:10135000893140016908023E8600013087000A3069
:1013600001020318DD290630E4006408D6000030CD
:10137000D700D800D901D90A1030E5006508DA0095
:10138000283088313D20893106304001E40064086E
:10139000D6006908023E8600013087000108E5009A
:1013A000E6016508D7006608D800D901D90A1030CF
:1013B000E7006708DA003030F72906304001E40022
:1013C0006408D6006908023E8600013087000108E3
:1013D000E500E6016508D7006608D8000230E7009E
:1013E0006708D9001030E8006808DA002830883132
:1013F0003D20893106304001E4006408B4005F30CC
:10140000E5006508B5000830E6006608B60038302B
:1014100092317B22893140016908033E8600013008
:1014200087000A30010203183F2A0630E4006408EE
:10143000D6000030D700D800D901D90A1030E50015
:101440006508DA004A3088313D2089310630400194
:10145000E4006408D6006908033E86000130870076
:101460000108E500E6016508D7006608D800D90143
:10147000D90A1030E7006708DA005030592A0630E0
:101480004001E4006408D6006908033E860001308C
:1014900087000108E500E6016508D7006608D80066
:1014A0000230E7006708D9001030E8006808DA0069
:1014B0004A3088313D20893140016908043E860068
:1014C000013087000A3001020318902A0730E40037
:1014D0006408D6000030D700D800D901D90A1030EE
:1014E000E5006508DA00583088313D208931073041
:1014F0004001E4006408D6006908043E860001301B
:1015000087000108E500E6016508D7006608D800F5
:10151000D901D90A1030E7006708DA006030AA2A3A
:1015200007304001E4006408D6006908043E8600E4
:10153000013087000108E500E6016508D70066086C
:10154000D8000230E7006708D9001030E8006808CA
:10155000DA00583088313D20893107304001E400FD
:101560006408B4003A30E5006508B5000830E600CC
:101570006608B600683092317B22893140016908E3
:10158000053E8600013087000A3001020318F42A64
:101590000730E4006408D6000030D700D800D90135
:1015A000D90A1030E5006508DA00703088313D2036
:1015B000893107304001E4006408D6006908053E1F
:1015C0008600013087000108E500E6016508D700C4
:1015D0006608D800D901D90A1030E7006708DA0098
:1015E000783088313D20080007304001E40064086D
:1015F000D6006908053E8600013087000108E50035
:10160000E6016508D7006608D8000230E7006708E1
:10161000D9000830E8006808DA00703088313D20D1
:1016200008004001E90069088600013087000103D5
:10163000031D08006908043E860001308700010888
:10164000083EE4006908043E860001308700640813
:1016500081006908043E86000130870019300102CC
:10166000031C442B6908043E8600013087000108F2
:10167000E83EFF3A013E083EE4006908043E860069
:1016800001308700640881006908043E860001304B
:1016900087000A3001020318772B0730E400640842
:1016A000D6000030D700D800D901D90A0830E500AB
:1016B0006508DA00263088313D208B310730400143
:1016C000E4006408D6006908043E86000130870003
:1016D0000108E500E6016508D7006608D800D901D1
:1016E000D90A0830E7006708DA002C30912B073060
:1016F0004001E4006408D6006908043E8600013019
:1017000087000108E500E6016508D7006608D800F3
:101710000230E7006708D9000830E8006808DA00FE
:10172000263088313D208B3107304001E4006408C9
:10173000B4003A30E5006508B5000830E6006608F8
:10174000B600323092317B228B3140016908053E70
:101750008600013087000A3001020318D92B0730B8
:10176000E4006408D6000030D700D800D901D90AB7
:101770000830E5006508DA003A3088313D208B31C9
:1017800007304001E4006408D6006908053E860081
:10179000013087000108E500E6016508D70066080A
:1017A000D800D901D90A0830E7006708DA004030CC
:1017B000F32B07304001E4006408D6006908053EB9
:1017C0008600013087000108E500E6016508D700C2
:1017D0006608D8000230E7006708D9000830E80042
:1017E0006808DA003A3088313D208B3107304001FB
:1017F000E4006408B4003A30E5006508B50008303C
:10180000E6006608B600463092317B228B314001FB
:101810006908053E8600013087000A30010203187E
:101820003B2C0730E4006408D6000030D700D80015
:10183000D901D90A0830E5006508DA004E30883150
:101840003D208B3107304001E4006408D600690870
:10185000053E8600013087000108E500E6016508C5
:10186000D7006608D800D901D90A0830E700670810
:10187000DA005430552C07304001E4006408D600EB
:101880006908053E8600013087000108E500E60191
:101890006508D7006608D8000230E7006708D9005D
:1018A0000830E8006808DA004E3088313D208B317E
:1018B00006304001E4006408D6001430D700003040
:1018C000D8000230E5006508D9000830E600660857
:1018D000DA00203088313D208B3106304001E400B1
:1018E0006408D600690A8600013087000108E50017
:1018F000E6016508D7006608D8000230E7006708EF
:10190000D9000830E8006808DA002C3088313D2022
:101910008B3106304001E4006408B4005F30E5001C
:101920006508B5000830E6006608B6003830923128
:101930007B228B3140016908023E8600013087001E
:101940000A3001020318CE2C0630E4006408D600E9
:101950000030D700D800D901D90A0830E500650861
:10196000DA00403088313D208B3106304001E40000
:101970006408D6006908023E86000130870001082D
:10198000E500E6016508D7006608D800D901D90A44
:101990000830E7006708DA004630E82C06304001DE
:1019A000E4006408D6006908023E86000130870022
:1019B0000108E500E6016508D7006608D800023096
:1019C000E7006708D9000830E8006808DA0040300E
:1019D00088313D208B3106304001E4006408B400BA
:1019E0005F30E5006508B5000830E6006608B6001F
:1019F0004C3092317B228B3140016908033E8600D6
:101A0000013087000A3001020318322D0630E4004D
:101A10006408D6000030D700D800D901D90A1030A8
:101A2000E5006508DA00543088313D208B310630FE
:101A30004001E4006408D6006908033E86000130D6
:101A400087000108E500E6016508D7006608D800B0
:101A5000D901D90A0830E7006708DA005A3088311E
:101A60003D20080006304001E4006408D600690803
:101A7000033E8600013087000108E500E6016508A5
:101A8000D7006608D8000230E7006708D9000830A0
:101A9000E8006808DA00543088313D200800410130
:101AA000D6000030D7000030D8000030D900003018
:101AB000DA000030DB000030DC00A0312F208D3157
:101AC00041015635A231EF228D31A6311F268D31CD
:101AD0002C30A231EF228D31A6311F268D310630F8
:101AE000A231EF228D31A6311F268D31A0319C20ED
:101AF0008D3103304001E5000830E4007730890B78
:101B00007F2DE40B7F2DE50B7F2DA0312F208D3114
:101B100003144101560DA231EF228D31A6311F264B
:101B20008D31003A031DF72DA33166238D3140011D
:101B3000E400E50164084101CA0040016508410173
:101B4000CB00A13109218D31A33166238D314001B4
:101B5000E400E50164084101CC0040016508410151
:101B6000CD00A13109218D31A33166238D31400192
:101B7000E400E50164084101CE004001650841012F
:101B8000CF00A13109218D31A33166238D31400170
:101B9000E400E50164084101D0004001650841010D
:101BA000D100A13109218D31A33166238D3140014E
:101BB000E400E50164084101D200400165084101EB
:101BC000D300A13109218D31A33166238D3140012C
:101BD000E400E50164084101D400400165084101C9
:101BE000D500A13123218D31A0319C208D314101BF
:101BF0004A084001E500E40141014C084001640449
:101C00004101C6004D08400165044101C70050086C
:101C10004001E500E4014101520840016404410132
:101C2000C8005308400165044101C900003040016B
:101C3000D1003430D200C230D300FF30C1007F3039
:101C4000C2004730C3000030B1002F30B200433033
:101C5000B300410147084001AE0041014608400180
:101C6000AD00A031B1208D3140012D08B4002E0807
:101C7000B5002F08B6009D31D4258D3140013108C3
:101C8000C4003208C5003308C6009D312B258D31B4
:101C900040014108D4004208D5004308D6009631DF
:101CA00012268D31400151084101D70040015208F0
:101CB0004101D800400153084101D900FF304001E3
:101CC000C1007F30C2004730C3000030B100C830CF
:101CD000B2004230B300410149084001AE00410169
:101CE00048084001AD00A031B1208D3140012D08E0
:101CF000B4002E08B5002F08B6009D31D4258D31D3
:101D000040013108C4003208C5003308C6009D31C7
:101D10002B258D31400141084101DA004001420884
:101D20004101DB00400143084101DC00570840014C
:101D3000A500410158084001A60041015908400191
:101D4000A7000030A800A030A900C130AA00A5312A
:101D50002C258D31031CFA2F00304001A500FA30EC
:101D6000A6004230A700410157084001A8004101E8
:101D700058084001A900410159084001AA00A531B5
:101D80002C258D31031CFA2F41015A084001A50072
:101D900041015B084001A60041015C084001A70029
:101DA0000030A8000030A9000030AA00A5312C2581
:101DB0008D31031CFA2F00304001A500C830A60069
:101DC0004230A70041015A084001A80041015B08C8
:101DD0004001A90041015C084001AA00A5312C2561
:101DE0008D31031CFA2F41015708A0005808A100AB
:101DF0005908A2005A08A6005B08A7005C08A800C2
:101E000057084001B400410158084001B5004101A4
:101E100059084001B6000030B1002030B200413016
:101E2000B3009D31D4258D3140013108C100320805
:101E3000C2003308C3009C3117248D314001420891
:101E40004201A100400141084201A00041015A089D
:101E50004001C10041015B084001C20041015C0832
:101E60004001C3009C3117248D31400142084201DA
:101E7000A500400141084201A40004304001E400F3
:101E80006408D600410120084001C1004101210839
:101E90004001C200410122084001C3009C311724C7
:101EA0008D3140014208D8004108D7000230E500DA
:101EB0006508D9001030E6006608DA002030883165
:101EC0003D208D3104304001E4006408B400B501C8
:101ED00000309C319E248D3104304001E4006408C0
:101EE000B400B501B50A10309C319E248D3100300C
:101EF0004001A5000030A6000030A70041012008E5
:101F00004001A800410121084001A9004101220827
:101F10004001AA00A5312C258D3103189E2F0430D5
:101F20004001E4006408B4006030E5006508B500D5
:101F30001030E6006608B6003030AC2F04304001A7
:101F4000E4006408B4006030E5006508B5001030B6
:101F5000E6006608B600383092317B228D310430BD
:101F60004001E4006408B4000230E5006508B500F3
:101F700048309C319E248D3104304001E4006408D7
:101F8000B400B501B50A58309C319E248D3104301F
:101F90004001E4006408D6000630A03E86008701B8
:101FA000403FC100413FC200423FC3009C31172463
:101FB0008D3140014208D8004108D7000230E500C9
:101FC0006508D9001030E6006608DA00683088310C
:101FD0003D208D3104304001E4006408B400253018
:101FE000E5006508B5001030E6006608B6007830F8
:101FF00092317B224101C801C901C601C701080015
:102000000034003400340034003400340034003430
:1020100000342F34003400340034003407340034EA
:1020200007340034003414347F3414347F341434CF
:10203000003424342A347F342A3412340034623495
:10204000643408341334233400343634493455347A
:102050002234503400340034053403340034003466
:10206000003400341C342234413400340034003451
:10207000413422341C3400340034143408343E34E7
:10208000083414340034083408343E340834083436
:10209000003400340034A034603400340034083498
:1020A00008340834083408340034003460346034B0
:1020B0000034003400342034103408340434023442
:1020C00000343E345134493445343E340034003415
:1020D00042347F344034003400344234613451346B
:1020E0004934463400342134413445344B3431349E
:1020F00000341834143412347F341034003427344C
:10210000453445344534393400343C344A34493458
:102110004934303400340134713409340534033423
:1021200000343634493449344934363400340634C2
:102130004934493429341E340034003436343634BA
:102140000034003400340034563436340034003463
:10215000003408341434223441340034003414344C
:10216000143414341434143400340034413422341C
:102170001434083400340234013451340934063440
:10218000003432344934593451343E3400347C34D0
:102190001234113412347C3400347F3449344934DD
:1021A0004934363400343E344134413441342234ED
:1021B00000347F344134413422341C3400347F34C1
:1021C000493449344934413400347F3409340934C2
:1021D0000934013400343E344134493449347A34CA
:1021E00000347F340834083408347F340034003439
:1021F00041347F344134003400342034403441349D
:102200003F34013400347F340834143422344134F0
:1022100000347F34403440344034403400347F3420
:1022200002340C3402347F3400347F3404340834F4
:1022300010347F3400343E344134413441343E3430
:1022400000347F34093409340934063400343E3410
:102250004134513421345E3400347F34093419342C
:10226000293446340034463449344934493431340D
:102270000034013401347F340134013400343F34FC
:102280004034403440343F3400341F342034403430
:1022900020341F3400343F344034383440343F3429
:1022A0000034633414340834143463340034073491
:1022B00008347034083407340034613451344934FC
:1022C00045344334003400347F34413441340034E5
:1022D000003455342A3455342A345534003400340B
:1022E000413441347F340034003404340234013446
:1022F00002340434003440344034403440344034F8
:102300000034003401340234043400340034203406
:10231000543454345434783400347F34483444349E
:10232000443438340034383444344434443420346D
:10233000003438344434443448347F34003438343E
:102340005434543454341834003408347E3409344A
:102350000134023400341834A434A434A4347C345A
:1023600000347F34083404340434783400340034C6
:1023700044347D3440340034003440348034843478
:102380007D34003400347F34103428344434003435
:102390000034003441347F344034003400347C3421
:1023A000043418340434783400347C34083404346D
:1023B00004347834003438344434443444343834C5
:1023C0000034FC34243424342434183400341834D5
:1023D000243424341834FC3400347C340834043479
:1023E00004340834003448345434543454342034DD
:1023F000003404343F3444344034203400343C341A
:102400004034403420347C3400341C342034403494
:1024100020341C3400343C344034303440343C34B8
:1024200000344434283410342834443400341C3408
:10243000A034A034A0347C340034443464345434A4
:102440004C344434143414341434143414341434E4
:1024500000304001CA000030C9000030C800003020
:10246000C700410840043F043E040319722ACB010F
:10247000CB0AC11B472A0130BE35BF0DC00DC10DAF
:10248000890B3C2A0130C6004608CB07392A0130A7
:10249000C735C80DC90DCA0D890B482A4108450228
:1024A000031D5C2A40084402031D5C2A3F084302C6
:1024B000031D5C2A3E084202031C672A3E08C20232
:1024C0003F08C33B4008C43B4108C53B47140130AB
:1024D000C136C00CBF0CBE0C890B682A0130CB0280
:1024E000031D472A4A08C1004908C0004808BF0028
:1024F0004708BE0008004001C200C101C301350801
:10250000E03EB7003708C10080304202031C8E2A2B
:10251000C2013408023EB7003708B4001030360656
:10252000031D142B3408B7003708B0004208A4314B
:10253000832492314001C301083043020318D12A99
:102540004308B700B8014108B900BA01B90EBA0E84
:10255000F030BA0539080F39BA04F030B905370838
:102560003907BB0038083A3DBC006F303B07840098
:1025700080303C3D85000008BD00BE013D08AB0039
:102580003E08AC000030AD00AE00A031C620923154
:1025900001304001B7003708C30708304302031C6D
:1025A000A02A3408013EB7003708B0004208A43121
:1025B000832492314001C30108304302031808000C
:1025C0004308B700B8014108B900BA01B90EBA0E04
:1025D000F030BA0539080F39BA04F030B9053708B8
:1025E0003907BB0038083A3DBC003B08083EBD0037
:1025F00000303C3DBE006F303D07840080303E3DE2
:1026000085000008BF00C0013F08AB004008AC00D7
:102610000030AD00AE00A031C62092310130400143
:10262000B7003708C307DC2A3408B7003708B00002
:102630004208A431832492314001C3010630430291
:10264000031808004108B700B8013708A50038088A
:10265000A6000630A7000030A800A13173219231F6
:1026600000304001B9009030BA0025083907BB009E
:1026700026083A3DBC0043083B0784003C08031889
:102680003C0A85000008BD00BE013D08AB003E08C5
:10269000AC000030AD00AE00A031C6209231013058
:1026A0004001B7003708C3071E2BAF3171279331A4
:1026B0004001CF004F08D1004101360840015106CA
:1026C00003196C2B0030A531682593314001510866
:1026D000CF004F084101B600E6304001B300A830FA
:1026E000B4005108CF00D0014F08B5005008B60023
:1026F0009E31882693312C2C4001C401DA30C5006C
:10270000A830C6000830CF004F08C7000030A731FE
:10271000B72708004001C4010830C500B030C6002A
:102720000830CF004F08C7000030A731B727080096
:102730004001B4011830CF004F08B500B601B60A09
:102740004830B700A830B80000309B3132239331B5
:102750004001C401A230C500A830C6000830CF0037
:102760004F08C7001830A731B72708004001B4014F
:102770001830CF004F08B500B601B60A3030B700A8
:10278000A830B80000309B31322393314001C4019E
:102790009330C500A830C6000830CF004F08C700EE
:1027A0001830A731B72708004001B4011830CF0016
:1027B0004F08B500B601B60A1830B700A830B80007
:1027C00000309B31322393314001C401BF30C5003A
:1027D000A830C6000830CF004F08C7002030A7310E
:1027E000B72708004001B4011830CF004F08B500EA
:1027F000B601B60A0030B700A830B80000309B31EF
:10280000322393314001C401FB30C500A830C6001B
:102810000830CF004F08C7001830A731B72708008D
:102820004001C401CD30C500A830C6000830CF003B
:102830004F08C7000030A731B72708004001C40186
:102840006030C500A830C6000830CF004F08C70070
:102850000030A731B7270800400151088400073035
:10286000040203181E2CA0310435003E820008002B
:1028700041014608033E283E8600013087000108DA
:10288000C8004808CE00FD2CA531A42508009731CA
:1028900008270800A0314020080041014608063EF4
:1028A000283E8600013087000108C8004808BA00A9
:1028B0000330C80048084001AD000030AE00AF0052
:1028C000033099311C21080001304101C80048083B
:1028D000B90008000130C8004808B80008004608E0
:1028E000053E283E8600013087004608043E283E0B
:1028F0008400013085000008CC000108CB00D30122
:10290000D4014C085402031D872C4B0853020318B2
:10291000080046085307083E283E8600013087001D
:102920000108C800C9014808C900C8014808D0000A
:102930004908D10046085307093E283E8600013069
:1029400087000108C800C9014808D0074908D13DDF
:102950004608283E5307063E9A310D229431410124
:10296000C8004808CD005008043EC8000030513D62
:10297000C9004808D3074908D43D812CA73128272E
:10298000080041014608063E283E8B31112308000D
:1029900041014608063E283E89315F210800410179
:1029A0004608063E283E8600013087000108C80020
:1029B0004808D2004608073E283E860001308700BE
:1029C0000108C8004808CF004F08C8004808400167
:1029D000A50041015208AF317427080041014608A3
:1029E000063E283E8600013087000108C8004808DE
:1029F000D200520893315523080041014E08003A95
:102A00000319442C013A0319472C033A03194A2CA1
:102A1000013A03194D2C073A0319642C013A0319A2
:102A20006A2C033A03196F2C0E3A0319BE2C043A90
:102A30000319C12C023A0319CF2C123A0319C82CDE
:102A4000373A0319EE2C242D08004101DB01DC018B
:102A5000D901DA013B2DA231862295314101D50001
:102A60003008283E8600013087005508810001307B
:102A7000B0070030B13D003031021F300319300281
:102A80000318482DAF31E4279531003A031D2B2D53
:102A9000003041013102073003193002031C0800E5
:102AA0005B09D5005C09D600D50A0319D60A30089F
:102AB0005507D7003108563DD8000030580207307E
:102AC00003195702031CF32D5B08283E86000130D2
:102AD000870055300106031D772D5B08013E283E17
:102AE000860001308700AA3001060319792D0130D4
:102AF000E22D5B08023E283E860001308700010877
:102B00000319842D0230E22D5B08043E283E860026
:102B1000013087000108D500D6015508D600D5013F
:102B20005508D9005608DA005B08053E283E8600A5
:102B3000013087000108073ED5000030031801303E
:102B4000D6005508D9075608DA3D00305A0227301A
:102B500003195902031CAE2D0330E22D5B09D50089
:102B60005C09D600D50A0319D60A30085507D700E4
:102B70003108563DD8005A085802031DC12D590886
:102B80005702031CF32D5B085907FF3E283E8400C3
:102B9000013085005B08283E4001A5000130A600F9
:102BA00041015908FF3E4001A700FF3041015A3D55
:102BB0004001A800A2312722953100060319E52D16
:102BC00003304101DB070030F12D41015C08C700F3
:102BD0005B08C60094313824953141015908DB0760
:102BE0005A08DC3D502D5B08B0025C08B13B300850
:102BF00031040319080028304001A5000130A60067
:102C000041015B08283E4001A7000130A8004101B6
:102C100031084001AA00410130084001A900873174
:102C20008927080040015108D7005208D8005308EE
:102C3000D9000310580D590DDA005A08DD00540868
:102C4000D7005508D8005608D9000310580D590D63
:102C5000DA005A08DC005D0803193A2E5C085D02B0
:102C60000318412E5D03FF3A5C07D7001930570265
:102C7000031C412E5408D1005508D2005608D30039
:102C800008005C08031908005D085C020318502E58
:102C90005C03FF3A5D07D70019305702031808009C
:102CA0000630D7005708DB00D31BDB17D61B5B179A
:102CB000D217FF30D105FF30D2050030D305D5172C
:102CC000FF30D405FF30D5050030D6055C085D0225
:102CD00003188C2E0130D435D50DD60D890B6B2EF3
:102CE0000130DC025C085D060319872E0130DB022F
:102CF0005B0807390319872E6A2E0130D336D20CB0
:102D0000D10C890B7E2E0130D7005708DD075D08F6
:102D10005C060319B12E7D2E5D085C020318B12EEE
:102D20000130D135D20DD30D890B912E0130DD024A
:102D30005C085D060319AD2E0130DB025B08073924
:102D40000319AD2E902E0130D636D50CD40C890B3C
:102D5000A42E0130D7005708DC075D085C06031D70
:102D6000A32EDB1FC32EFF30D106FF30D206FF306B
:102D7000D3060130D107003003180130D2070030EC
:102D800003180130D3075B1FD52EFF30D406FF3068
:102D9000D506FF30D6060130D407003003180130C5
:102DA000D507003003180130D607DB015108D407DE
:102DB0005208D53D5308D63DD61FF02EFF30D4061D
:102DC000FF30D506FF30D6060130D4070030031897
:102DD0000130D507003003180130D607DB01DB0ACC
:102DE0005408A5005508A6005608A7005D08D7009E
:102DF0005708A8005B08D8005808A9009A31CD22CE
:102E000040012508D1002608D2002708D300080079
:102E10004001CD01D330860001308700433084006B
:102E2000003085000A30C00016001A00C00B142FB5
:102E30004D08C000C1014008B8004108B900103079
:102E4000BA00B030BB001030A500B030A600A531EC
:102E5000E125973140012608BD002508BC00A131BD
:102E60003D21973140013808C2004208CD004D088D
:102E7000C000C1014008B8004108B9007230BA0072
:102E8000A830BB007230A500A830A600A531E1250E
:102E9000973140012608BD002508BC00A1313D2125
:102EA000973140013808C2004208CD004D08C000EB
:102EB000C1014008B8004108B9000030BA00B03084
:102EC000BB000030A500B030A600A531E125973148
:102ED00040012608BD002508BC00A1313D219731E5
:102EE00040013808C2004208CD004D08C000C101B1
:102EF0004008B8004108B9001E30BA00B030BB002D
:102F00001E30A500B030A600A531E1259731400163
:102F10002608BD002508BC00A1313D2197314001A4
:102F20003808C2004208CD004D08C000C101400869
:102F3000B8004108B9001730BA00B030BB001730F4
:102F4000A500B030A600A531E12597314001260843
:102F5000BD002508BC00A1313D2197314001380852
:102F6000C2004208CD004D08C000C1014008B800B1
:102F70004108B9002930BA00B030BB002930A500A3
:102F8000B030A600A531E125973140012608BD00EB
:102F90002508BC00A1313D21973140013808C2000D
:102FA0004208CD004D08C000C1014008B8004108EA
:102FB000B9002B30BA00B030BB002B30A500B030C8
:102FC000A600A531E125973140012608BD0025085E
:102FD000BC00A1313D21973140013808C2004208B0
:102FE000CD000330C0004008AD004D08C100C20153
:102FF0004108AE004208AF00013099311C210800A1
:103000001034603402348C3400340034FE34923492
:103010009234923492349234FE34003400340034CA
:103020000034003400340034003400340034003400
:1030300000340034003400340034003400340034F0
:10304000043404347E34013440347E344234423417
:103050007E3442347E34423442347E344034003450
:1030600000340034003400340034003400340034C0
:1030700000340034003400340034003400340034B0
:1030800000340034FC34243424342434FC34253417
:1030900026342434FC3424342434243404340034DA
:1030A0000034003400340034003400340034003480
:1030B0000034003400340034003400340034003470
:1030C000403430348F34803484344C345534253497
:1030D0002534253455344C348034803480340034E5
:1030E0000034003400340034003400340034003440
:1030F0000034003400340034003400340034003430
:103100001034603402348C340034FE3492349234FF
:103110009234923492349234FE34003400340034C9
:1031200000340034003400340034003400340034FF
:1031300000340034003400340034003400340034EF
:10314000043404347E3401344434483450347F34FD
:10315000403440347F3450344834443440340034B4
:1031600000340034003400340034003400340034BF
:1031700000340034003400340034003400340034AF
:103180004001B70037089831CF2040012808B5002A
:103190002708B4002608B3002508B2000800400143
:1031A000B1000030B0000030AF000030AE000030A1
:1031B000AD0031088600013087000108A900AA018E
:1031C000AB01AC012C08B0002B08AF002A08AE0000
:1031D0002908AD000830AD35AE0DAF0DB00D890B2F
:1031E000EB28310A8600013087000108AD04083061
:1031F000AD35AE0DAF0DB00D890BF8283108023E8C
:103200008600013087000108AD040830AD35AE0DF1
:10321000AF0DB00D890B06293108033E8600013041
:1032200087000108AD043008A8002F08A7002E0869
:10323000A6002D08A50008004001B100B2015530DC
:10324000B00030084401B400AA304001B00030089A
:103250004401B50040012D08B00030084401B6001B
:1032600040013108B00030084401B70040012F0888
:10327000B00030084401B80040012E08B00030080A
:103280004401B90007304001AE070030AF3D343093
:10329000A5000230A6002E08FF3EA700FF302F3DFC
:1032A000A800A231272299314001B0003008B200B5
:1032B0003208B0002E08FF3E343E86000230870000
:1032C000300881002F08A9002E08A8003430A23150
:1032D00066220800F70041013B08F0000130F100D0
:1032E000F009F109F00A0319F10A3C08F200013073
:1032F000F30070087207F4007108733DF500740361
:103300007504031908003B083C020318A5293C0872
:10331000F0000130F100F009F109F00A0319F10A97
:103320003B08F2000130F30070087207F4007108E6
:10333000733DF5007508803AF60080307602031D73
:10334000A32917307402031808005E3041013B02C4
:10335000031CAE294730F0007008BB007708F0006E
:103360003B08860001308700700881000130F000C2
:103370007008BB0708004001AB01A61FC629A509BC
:10338000A609A50A0319A60AAB01AB0AA81FD129F1
:10339000A709A809A70A0319A80A0130A900290842
:1033A000AB06AC01AD01250826040319002AAA01C9
:1033B000AA0AA61BE5290130A535A60D890BDC2933
:1033C0000130A9002908AA07D9290130AC35AD0D73
:1033D000890BE62926082802031DF0292508270263
:1033E000031CF7292508A7022608A83B2C14013046
:1033F000A636A50C890BF8290130AA02031DE52980
:103400002B080319082AAC09AD09AC0A0319AD0A47
:103410002D08A6002C08A50008004001D800580877
:103420008600013087000108CE004E08D7005808FA
:103430008600013087000130413FD5005808023E28
:103440008600013087000108CE00CF014E08CF0072
:10345000CE014E08D2004F08D3005808033E860024
:10346000013087000108CE00CF014E08D2074F0877
:10347000D33D5708A231A6229A314001CE004E0812
:10348000D4005408CE00CF01CE35CF0D4E08013EFA
:10349000D00000304F3DD100B13050078400A8303B
:1034A000513D8500000855060319582A00300800D0
:1034B0005808043ECE004E08C8005308CA005208FF
:1034C000C9005708A031F2204001CF004F08D600B4
:1034D000560808004001B500B601B7017B03031987
:1034E00008003708A6003608A5003508B4003408DF
:1034F000A700A03175209A3140012608B7002508A1
:10350000B6003708A6003608A500A701A70AA03113
:1035100075209A3140012608B7002508B600370803
:10352000A6003608A500A701A03175209A314001F8
:103530002608B7002508B6003708A6003608A500FB
:10354000A701A70AA03175209A3140012608B700CB
:103550002508B6003308031DB32A3708A60036082D
:10356000A500A701B92A3708A6003608A500A701BB
:10357000A70AA03175209A3140012608B700250816
:10358000B6000330B4003408AD003708AF00360889
:10359000AE00073099311C210800400128080319AA
:1035A000D62A270826042504031DE72A0030A50093
:1035B0000030A6000030A70008000130AA002A0849
:1035C000A8070130A736A60CA50C890BE22AFE300D
:1035D00027050319002BDD2A0130AA002A08A807B5
:1035E0000130A507003003180130A607003003188A
:1035F0000130A7070130A736A60CA50C890BFB2AC2
:10360000FF30270503190D2BEC2A0130A8020130E9
:10361000A535A60DA70D890B082BA61B132B023071
:1036200028020318052B28181B2BFF30A5057F3017
:10363000A605FF30A7050310A80C2808AA00AB01B7
:10364000AC011030AA35AB0DAC0D890B222B2A082A
:10365000A5042B08A6042C08A704290803190800B0
:10366000A71708004001BF00BC01BD01360807399B
:10367000031D4B2B0830A5000030A6003608B9000A
:10368000BA013908A7003A08A8009931BB219B313B
:10369000400125085C2B0830A5000030A600360844
:1036A000B900BA013908A7003A08A8009931BB212E
:1036B0009B3140012508013EBB003B08C000340897
:1036C000B9003908C0003608400203180800400855
:1036D000B9003908B0003F08A43183249B31400170
:1036E0003F08B9003908BE0035083E020318952B83
:1036F00037083C07840038083D3D85000008B900C4
:10370000BA013908AB003A08AC000030AD00AE0099
:10371000A031C6209B3101304001BC070030BD3DC7
:103720000130B9003908BE07742B0130B9003908DF
:10373000C007632B213040019C009B0198019D0133
:10374000990159019001183040019A000C3059013B
:103750009100F23040019600FF309700DF30920078
:10376000DB3059018E00FF30400193000B305901CE
:103770008F00673040019400FF3095007E01D90131
:10378000A530CE00FF30C300C030E400DD307C0146
:10379000DB00D001DF307E01B800DA017C01D1010D
:1037A0007E01E501C4017C01DC017E01B9014030EC
:1037B000CF007C01E7017E01E6017C01D2017E01A0
:1037C000BA017C01DD017E01C5017C01E8017E01B9
:1037D000D001DB01DF30BB00FF30C600FF30D1007D
:1037E000FF30DC00FB30E700FF307C01D300DF302E
:1037F000DE000F30E900FF307E01BC00FF30C70063
:10380000FF30D200FF30DD00FB30E800FF307C01EC
:10381000D400FF30DF000F30EA0031307D01CD00F1
:103820000D307E01A7000F307C01C200080040016E
:103830004108C5004208C6004308C7000310460DF2
:10384000470DC8004808CE004E08031D302C00303C
:10385000C4000030C3000030C2000030C1000800C6
:103860004108C5004208C6004308C7001730C736E4
:10387000C60CC50C890B372C4508C8004808C90080
:10388000C217FF30C105FF30C2050030C305410833
:10389000CA004208CB004308CC00CD018E30CE02D6
:1038A000CE1F6E2C4E08803A8F3E0318602C0030DD
:1038B000C4000030C3000030C2000030C100080066
:1038C0000130CD36CC0CCB0CCA0C890B612C0130ED
:1038D000C5004508CE070319872C602C18304E020E
:1038E000031C842C0030C4000030C3000030C20030
:1038F0000030C10008000130CA35CB0DCC0DCD0D14
:10390000890B7C2C0130CE024E08031D7B2C49080C
:103910000319952CCA09CB09CC09CD09CA0A031988
:10392000CB0A0319CC0A0319CD0A4D08C4004C0870
:10393000C3004B08C2004A08C10008004001C10092
:10394000C0013408B6003608B0004108A431832411
:103950009C314001C201103042020318E42C3508AA
:10396000B600B701B635B70D0530B635B70D890BC2
:10397000B52C0030B8009830B90036083807BA00C6
:103980003708393DBB0042083A0784003B0803185A
:103990003B0A85000008BC00BD013C08AB003D08A7
:1039A000AC000030AD00AE00A031C6209C3101302B
:1039B0004001B6003608C0070130B6003608C2071D
:1039C00010304202031CAF2C3408013EB60036080A
:1039D000B0004108A43183249C314001C201103061
:1039E0004202031808003508B600B701B635B70D16
:1039F0000530B635B70D890BF92C3608203EB800D6
:103A00000030373DB9000030BA009830BB003808AC
:103A10003A07BC0039083B3DBD0042083C07840022
:103A20003D0803183D0A85000008BE00BF013E089E
:103A3000AB003F08AC000030AD00AE00A031C620A6
:103A40009C3101304001B6003608C0070130B60095
:103A50003608C207EF2C40014408C7004508C800DB
:103A60004608C9000310480D490DCA004A08CF0096
:103A70004F08031D422D0030C1000030C20000304D
:103A8000C30008004108C7004208C8004308C90035
:103A90000310480D490DCA004A08D0005008031D04
:103AA000582D0030C1000030C2000030C3000800B3
:103AB0000030CC000030CD000030CE0089305007FF
:103AC000C7004708CF024408C7004508C800460899
:103AD000C9001030C936C80CC70C890B6A2D4708BD
:103AE000CA004A08D0004108C7004208C80043087D
:103AF000C9001030C936C80CC70C890B7A2D47088D
:103B0000CA004A08D0068030C7004708D005C5174C
:103B1000FF30C405FF30C5050030C605C217FF30B1
:103B2000C105FF30C2050030C3051830C700470883
:103B3000CB000130CC35CD0DCE0D890B9A2D43082D
:103B40004602031DA92D42084502031DA92D410867
:103B50004402031CB22D4108C4024208C53B43087D
:103B6000C63B4C140130C435C50DC60D890BB32DB1
:103B70000130CB02031D992D4C08A5004D08A6006D
:103B80004E08A7004F08C7004708A8005008C80003
:103B90004808A9009A31CD2240012508C100260815
:103BA000C2002708C300080040013108B7003208EE
:103BB000B8003308B9000310380D390DBA003A08BF
:103BC000BB003B08031DEB2D0030B1000030B200FC
:103BD0000030B30008003408B7003508B8003608D4
:103BE000B9000310380D390DBA003A08C00040087A
:103BF000031D012E0030B1000030B2000030B300D0
:103C0000080040087B3EB7003708BB073108B70003
:103C10003208B8003308B9001030B936B80CB70C08
:103C2000890B0D2E3708BA003A08C0003408B700D7
:103C30003508B8003608B9001030B936B80CB70CE2
:103C4000890B1D2E3708BA003A08C0068030B7002D
:103C50003708C005B217B517FF30B405FF30B505FA
:103C60000030B6050030BC000030BD000030BE00A2
:103C70000730B7003708BF00311C442E3408BC079A
:103C80003508BD3D3608BE3D0130B336B20CB10C2F
:103C9000890B452E0130B435B50DB60D890B4B2E71
:103CA0000130BF02031D3C2E0930B7003708BF00AA
:103CB000311C602E3408BC073508BD3D3608BE3DBA
:103CC0000130B336B20CB10C890B612E0130BE3617
:103CD000BD0CBC0C890B672E0130BF02031D582E92
:103CE0003C08A5003D08A6003E08A7003B08B70019
:103CF0003708A8004008B8003808A9009A31CD223A
:103D000040012508B1002608B2002708B3000800CA
:103D100035304001B7003708BB0040013408B80017
:103D20003308B700B30A0319B40A37088400380807
:103D300085000008B9003908C000400803190800D0
:103D4000253040060319A92E4008AF3181279E3146
:103D50008D2E4001BC013408B8003308B700B30A07
:103D60000319B40A37088400380885000008C00029
:103D7000003A03193F2F643A0319C22E0D3A031972
:103D8000C22E8D2E3B0886008701403FBE00413F7A
:103D9000BF000230B7003708BB07BF1FD82E033063
:103DA000B7003708BC04BE09BF09BE0A0319BF0A21
:103DB000C001C00A053040060319FD2E4008B700B7
:103DC000B801B735B80DF13037078400A830383D59
:103DD0008500003FB900013FBA003A083F02031DC9
:103DE000F32E39083E02031CFD2E0130B7003708C0
:103DF000C00705304006031DDE2E3C0803390319B9
:103E0000052F2D30AF3181279E3140014008B7008A
:103E10003708BD00FF304001B7003708BD073D0A35
:103E200003198D2E0A30AD000030AE003D08B700FA
:103E3000B801B735B80DF13037078400A830383DE8
:103E40008500003FA500013FA6003F08A8003E08EE
:103E5000A700A43118249E3140012608B00025088F
:103E6000AF00A331BB239E3140012D08303EB90085
:103E70003908C0004008AF3181279E310A2F080061
:103E80004001BC00BD01BE017B03031D492F013071
:103E900008003E08A6003D08A5003C08B70037080A
:103EA000A700A03175209F3140012608BE002508DB
:103EB000BD003E08A6003D08A5000230B700370847
:103EC000A700A03175209F3140012608BE002508BB
:103ED000BD003E08A6003D08A500A701A031752041
:103EE0009F3140012608BE002508BD003E08A600FF
:103EF0003D08A5000430B7003708A700A0317520A1
:103F00009F3140012608BE002508BD003E08A600DE
:103F10003D08A5003308B7003408B8003508B900DB
:103F20003608BA001830BA36B90CB80CB70C890B81
:103F3000932F3708BB003B08A700A03175209F31A5
:103F400040012608BE002508BD003E08A6003D0829
:103F5000A5003308B7003408B8003508B9003608A2
:103F6000BA001030BA36B90CB80CB70C890BB22FA6
:103F70003708BB003B08A700A03175209F314001E6
:103F80002608BE002508BD003E08A6003D08A50085
:103F90003308B7003408B8003508B9003608BA004D
:103FA0000830BA36B90CB80CB70C890BD12F3708CA
:103FB000BB003B08A700A03175209F3140012608B7
:103FC000BE002508BD003E08A6003D08A500330838
:103FD000B7003708A700A03175209F31400126089F
:103FE000BE002508BD000330B7003708AD003E080D
:103FF000AF003D08AE00073099311C2101300800A8
:1040000093317C2B93318A2B9331982B9331B62BA0
:104010009331D42B9331F22B9431102C4F01960114
:104020009701980199019A019B01080060305101A4
:104030008D008F019101063093009001920194014F
:1040400008004101B90103304001B3003308AD005D
:104050000030AE00AF00043099311C21080040014F
:1040600014121A169A150A30890B342800324001AE
:104070001A120A30890B3A28003240019A110800BE
:104080004001B6010330B3003308AD003608B40078
:10409000B5013408AE003508AF00023099311C215B
:1040A0000800A0310E20A0319B319A23A031A0310D
:1040B0001620A031A1315721A031A231CA22A0314E
:1040C000A631E22608004001A800A701281C6C28A0
:1040D0002508A6002608A7070310A50D0310A80CA5
:1040E0002808031D662827080800400125083A3ED5
:1040F000A8002808A9002708A8002908860002307F
:104100008700280881000130A5070030A63D08007F
:1041100047304001A50025084101BB004730400160
:10412000A50025084101BC00FB01FF304001A500AE
:1041300025084101BA000800400114121A129A1110
:104140000A30890BA128003240019A150A30890BE8
:10415000A728003240011A160A30890BAD28003218
:10416000080040012D08A5002E08A600A7018E30EA
:10417000B0003008A800A9019A31CD2240012508DD
:10418000AD002608AE002708AF00080040012D034F
:104190002E04031DD3287830AF002F08A8002B0869
:1041A000A131E921080078304001AF002F08A800B4
:1041B0002B08A23108220800A7316F27A031A331B4
:1041C0009023A031410167088D314F25A0319531F1
:1041D0002525A0314101330893315523A031953174
:1041E000252508004001CC0002294A08C0004908E2
:1041F000BF004808A431F224A0314001CB004B0895
:10420000CD0007294C08063A0319F52807294D085F
:104210000800400114129A110530890B0D29000085
:1042200040011A120530890B1329000040019A152C
:104230000530890B1929000040019A110032003223
:10424000003200320800400114129A110530890B27
:104250002729000040011A160530890B2D2900007E
:1042600040019A150530890B3329000040019A114D
:1042700000320032003200320800400138083A3E75
:10428000BE003E08BF003F08A5000230A6003B0864
:10429000A8003A08A7003D08AA003C08A9008731F9
:1042A000892740013C08B8073D08B93D080048305F
:1042B0004B019F0085309D00EE309C001D084101A0
:1042C000EB004B011C084101EA004E018C129616CE
:1042D0006D304001A5002F30A600AF31DB279030B4
:1042E0004B019E0008004001A901AA01251C7C2960
:1042F0002708A9072808AA3D0130A735A80D890B72
:104300007D290130A636A50C890B822925082604B3
:10431000031D76292A08A6002908A50008004001E7
:104320000E1B080034304001B900F130890B96298A
:10433000B90B9629003240010E1B08000E1F9E2962
:10434000A0312120A1314101BE010030A33115234C
:10435000A131A7316F270800103041016C0203180A
:10436000C7294308B43E8600013087000108540184
:104370009A000130F00070084101C3071030430279
:104380000318C3010130F0007008EC0708004E016B
:10439000191308004001A000A101A201A101A2017E
:1043A00079082202031DD629780821020318080083
:1043B00021082007FA007A088600033087000108E8
:1043C00099316A21A13101304001A1070030A23D9D
:1043D000D0294001A900A0312F20A1314001280897
:1043E000A231EF22A131A1310921A1310030A23146
:1043F000EF22A131A1310921A13140012908A231C7
:10440000EF22A131A1310921A131A0319C20080066
:104410004001A900A0312F20A23140012808A2317B
:10442000EF22A231A1310921A2314030A231EF2285
:10443000A231A1310921A23140012908A231EF2284
:10444000A231A1310921A231A0319C2008004001F4
:10445000AC01AA01AB0128082B02031D312A270851
:104460002A020318442A2508860026088700010826
:10447000A9002908AC070130A5070030A63D01308E
:10448000AA070030AB3D2B2A2C080800540119085C
:104490004001A3007D08203E8600033087002308EA
:1044A00081000130A3002308FD0740307D0203187E
:1044B000FD010130A30023084101C2074030F8008C
:1044C0000030F9002030A131CA2108004001AB00C2
:1044D0002B080319080028082904031908000130D3
:1044E000A8020030A93B280A0319290A0319080069
:1044F0002B088600023087000108AF317B27A231EC
:1045000001304001AA002A08AB076F2A41013C088C
:104510003B060319A32A5E303C02031C952A473050
:104520004001A50025084101BC003C08860001307F
:10453000870001084001A5002508A6000130A5005C
:1045400025084101BC074001260808004001A700DA
:1045500080310220A2314001A5002508A800A90150
:10456000280829020318C82A2908A500A601A5358C
:10457000A60DB13025078400A830263D850000082F
:1045800027060319C82A0130A5002508A907B02A63
:1045900029080800083042019F0080309D00243027
:1045A0009E0040309B0003309C0000304001A5007D
:1045B0000030A600AF319C27A23100304001A50099
:1045C0000030A600AF31A527A23100304001A50080
:1045D0000030A600AF3193274101C001080040011F
:1045E000A60014129A11A701083027020318080028
:1045F000A61FFC2A1A16FD2A1A120310A60D053052
:10460000890B002B000040019A150530890B062B01
:10461000000040019A110530890B0C2B000001307D
:104620004001A5002508A707F42A4001B700B801FA
:104630004101B80140013808B300B4013308A500B6
:104640003408A6003708B5003508A700A03175204A
:10465000A33140012508B6003608B8000330B30086
:104660003308AD003808B400B5013408AE00350891
:10467000AF00053099311C2108004001A60041011E
:104680006C0803193F2B4E01191B4B2B40012608C8
:1046900054019A00632B191340012608A50041011B
:1046A0004408B43E8600013087004001250881009F
:1046B0000130A50025084101C40710304402031849
:1046C000C4010130EC024E01191708004001A70196
:1046D000141600320032003200324001A6010830C8
:1046E000260203188D2B9A110530890B752B0000BB
:1046F00040019A152735A5002508A7000E1A271492
:10470000003200320032003201304001A50025089D
:10471000A60708302602031C732B9A1127080800ED
:104720004001C401C40A2430C500B030C6001030B6
:10473000CF004F08C7001830A731B727A331400179
:10474000B401B40AB50138309C319E24A331400134
:10475000B401B40A0230CF004F08B50048309C3194
:104760009E24A3314001B401B40AB501B50A583002
:104770009C319E24080040012D082E040319E32BD0
:10478000B201B20AAE1BCE2B0130AD35AE0D890B96
:10479000C52B0130B1003108B207C22B2E08300200
:1047A000031DD42B2D082F02031CDA2B2D08AF027A
:1047B0002E08B03B0130AE36AD0C890BDB2B01303F
:1047C000B202031DCE2B3008AE002F08AD0008004A
:1047D00000304001B0000030AF000030AE000030CB
:1047E000AD00251CFB2B2908AD072A08AE3D2B0880
:1047F000AF3D2C08B03D0130A935AA0DAB0DAC0D75
:10480000890BFC2B0130A836A70CA60CA50C890B34
:10481000032C2808270426042504031DF12B300847
:10482000A8002F08A7002E08A6002D08A500080044
:104830004001AA01AB01250826040319482CAC014C
:10484000AC0AA61B2D2C0130A535A60D890B242CF6
:104850000130A9002908AC07212C0130AA35AB0D85
:10486000890B2E2C26082802031D382C2508270228
:10487000031C3F2C2508A7022608A83B2A14013058
:10488000A636A50C890B402C0130AC02031D2D2C43
:104890002B08A6002A08A50008007D08A03E860077
:1048A00002308700810154011D1D622C7D08A03E4D
:1048B0008600023087008114420169088A00680876
:1048C0000A00A43154019D1C712C7D08A03E860075
:1048D000023087000115420167088A0066080A0055
:1048E000A4317D08A03E860002308700010803192C
:1048F000802C420165088A0064080A00A43108007F
:10490000A231462208004001B3003008B03EAB009F
:10491000003003180130AC000130AD000030AE00B3
:10492000A031C620A43140013308B1000430B136B3
:10493000890B972C0F303105B20010303204AB00D8
:104940000030AC000130AD000030AE00A031C62018
:10495000A431400133080F39B100B2013108AB0076
:104960003208AC000130AD000030AE00A031C620EE
:1049700008004001B9000030BD000030BC0000302C
:10498000BB000130BA000130B102310A0319E92C31
:104990003908B500B601B701B8013808A8003708D2
:1049A000A7003608A6003508A5003D08AC003C0865
:1049B000AB003B08AA003A08A900A331E823A431C0
:1049C00040012808BD002708BC002608BB002508B8
:1049D000C22C3D08B4003C08B3003B08B2003A08C2
:1049E000B10008004001C7004008B3003F08B20012
:1049F00047089831C020A43140013508C60034086A
:104A0000C5003308C4003208C30046084101E20073
:104A1000400145084101E100400144084101E00036
:104A2000400143084101DF0040014608B600450847
:104A3000B5004408B4004308B30006309F31402756
:104A4000A4314001C1004108C2004203031D2A2DC8
:104A500001300800003008004001A71F432D250940
:104A6000AB002609AC002709AD00AB0A0319AC0A5C
:104A70000319AD0A00302B07A50000302C3DA6001D
:104A800080302D3DA700AA1F592D2809AB00290908
:104A9000AC002A09AD00AB0A0319AC0A0319AD0A30
:104AA00000302B07A80000302C3DA90080302D3DA0
:104AB000AA008030A7068030AA062A082702031D14
:104AC000080029082602031D0800280825020800FE
:104AD0004001B1003108B03EAB0000300318013096
:104AE000AC000130AD000030AE00A031C620A531D1
:104AF00000304001AB00AC000130AD000030AE0032
:104B0000A031C620A53110304001AB000030AC0010
:104B10000130AD000030AE00A031C620A53140010B
:104B2000B20180303202031808000030AB00AC0044
:104B30000030AD00AE00A031C620A53101304001EB
:104B4000B0003008B207912D4001B601410135088F
:104B5000031DBF2D40013608B300B4013308A50082
:104B60003408A600A701A0317520A5314001250811
:104B7000B5003508B6004101B501B50AD12D400197
:104B80003608B300B4013308A5003408A600A70115
:104B9000A70AA0317520A53140012508B5003508C8
:104BA000B60003304001B3003308AD003608B4004E
:104BB000B5013408AE003508AF00003099311C2132
:104BC000080000304001AF000030AE000030AD0002
:104BD0000030AC0025082604031DF72D0030A80086
:104BE0000030A7000030A6000030A500080000300B
:104BF000AF000030AE000030AD000030AC00260841
:104C0000AA002508A900A50A0319A60A29088400F4
:104C10002A08850012000319162E0130AC07003057
:104C2000AD3D0030AE3D0030AF3DFF2D2F08A80058
:104C30002E08A7002D08A6002C08A5000800C830E3
:104C40004001A5002508A60014121A1600320032F1
:104C50000032003240019A1100320032003200323C
:104C600040011416003200320032003240010E1EA4
:104C70004C2E01304001A6020032003200320032D8
:104C800040012608031D472E9A110130080000320A
:104C9000003200320032362E003200320032003252
:104CA00040019A15003200320032003240019A1160
:104CB0000032003200320032003008004E018C1207
:104CC00041016B084B019D0041016A084B019C00AA
:104CD0004101680869040319722E69088A0068088E
:104CE0000A00A63101304101AC070030AD3D003073
:104CF000AE3D0030AF3D3D08031D802E0130812EBA
:104D00000030F0007008BD0062082F02031D922ED3
:104D100061082E02031D922E60082D02031D922EA3
:104D20005F082C02031C08000030AF000030AE000A
:104D30000030AD000030AC00BF01BF0A08004001E8
:104D40004F084E044D044C040319D92ED501D50A41
:104D5000CF1BB62E0130CC35CD0DCE0DCF0D890B2E
:104D6000AB2E0130D4005408D507A82E4F085302AB
:104D7000031DC42E4E085202031DC42E4D085102BD
:104D8000031DC42E4C085002031CCE2E4C08D0022A
:104D90004D08D13B4E08D23B4F08D33B0130CF36B4
:104DA000CE0CCD0CCC0C890BCF2E0130D502031DBF
:104DB000B62E5308CF005208CE005108CD0050083F
:104DC000CC0008004E0199134D304001A50024305D
:104DD000A600AF31C927A6314E011913AC304001EE
:104DE000A5002130A600AF31D227A63108305401EA
:104DF0009F0090309D0024309E0040309B00033087
:104E00009C006C304001A5002F30A600AF31B727C1
:104E1000A63177304001A5002F30A600AF31C02762
:104E2000A6316E304001A5002F30A600AF31AE276D
:104E30004101C101C401C30110304001A70027088E
:104E40004101EC00FD01FC01C2014E01991708006F
:104E5000420120084001B300420121084001B40092
:104E6000B501B60101309F314027A7314201240826
:104E70004001B300420125084001B400B501B6016C
:104E800002309F314027A73100304001B60000308A
:104E9000B5000030B4003230B30004309F314027F9
:104EA000A731410162084001B6004101610840019B
:104EB000B500410160084001B40041015F084001B4
:104EC000B30006309F314027A73141013708400128
:104ED000BF003F08B30008309A316A220800400141
:104EE000B20108303202031808003208B03EAB00AD
:104EF000003003180130AC000130AD000030AE00CE
:104F0000A031C620A73100304001AB00AC00013019
:104F1000AD000030AE00A031C620A73110304001F6
:104F2000AB000030AC000130AD000030AE00A0316D
:104F3000C620A7314001B101803031020318B22FE1
:104F40000030AB00AC000030AD00AE00A031C62098
:104F5000A73101304001B0003008B1078030310284
:104F6000031CA02F0130B0003008B207712F4001A0
:104F7000CE00CD014608C9004508C8004D084807C5
:104F8000840049080318490A850012000319080023
:104F90004408C8004808B4004608CA004508C900CB
:104FA0004D08490784004A0803184A0A850000088A
:104FB000CB004B08B5004708CC004C08B6004E08A3
:104FC00092317B22A731083040014706031DEE2FA6
:104FD0000630C8004808CE077B30F32F0830C800E1
:104FE0004808CE0779304E02031CFB2FCE01023059
:104FF000C8004808C4070130C8004808CD07BA2FC8
:105000000034FE3482348234823482349234BA34AE
:1050100092348234823482348234EE343834003430
:1050200000340034003400340034003400340034E0
:1050300000340334053409341134FF341134893415
:105040000534C3340034E0340034F0340034F83430
:105050000034003402341F344234F8344034003415
:1050600000340334053409341134FF3411348934E5
:105070000534C3340034E0340034F0340034F83400
:105080000034003400340034003400340034003480
:1050900000340334053409341134FF341134093435
:1050A0000534033488345034203450348834003488
:1050B0000034003400340034003400340034003450
:1050C0005734613469347434203443346F346E346B
:1050D0006E34653463347434203457344934463480
:1050E000493400347734763470347134363437349C
:1050F0007834793463346334713466347534743499
:1051000068346E34003400340034FC34FE34FE3431
:10511000FC3400340034003400343F347F347F34B6
:105120003F340034003443346F346E346E346534AD
:1051300063347434203452346F34753474346534C9
:105140007234003443346F346E34663469346734F7
:1051500020345334753463346334653473347334B6
:10516000003401340234023402340434023406348C
:105170000234083401340E3404340F34043443341C
:105180006F346E346E346534633474342034433495
:105190006C346F3475346434003453346D3461349A
:1051A00072347434203461346E34643420344134C5
:1051B0005034003453346D346134723474344334B5
:1051C0006F346E346634693467340034773469344C
:1051D000663469343A342034253464340D340A3466
:1051E0000034013400340A34003464340034E834C8
:1051F0000334103427344C346F3477342034503433
:0A5200006F347734653472340034E3
:105ED80008000800A2314622080041013A080800DB
:105EE8004001A600080054011D121D1608004001BB
:105EF800A7002708A3313D2308004001A600260873
:105F0800AF31F6270800640080010131890B882F22
:105F18000034FE0012001E00FE0B8E2F00344001DC
:105F280026084201DF00400125084201DE00080082
:105F3800400126084201E300400125084201E20031
:105F48000800400126084201E100400125084201FD
:105F5800E0000800400126084201E500400125084C
:105F68004201E4000800400126084201E90040011E
:105F780025084201E8000800400126084201E70020
:105F8800400125084201E6000800400126084201B8
:105F9800EB00400125084201EA00080040012608FC
:105FA8004201ED00400125084201EC0008004001D3
:105FB80026084101E900400125084101E8000800E0
:105FC80041013B083C060319EB2F01300800003063
:105FD80008003C3400340034003450341E34323469
:105FE8000F3444344001A5004E010F1EF82F400124
:105FF800250842019A00080022342C3422347634D1
:1060080022343A34223400344134503420344D346C
:106018004F344434453400347B34223470342234D1
:106028003A342234003422342C3422346D3422346D
:106038003A34003431342E3430342E343034003491
:1060480054347534793461340034323400347D3456
:02605800003412
:020000040001F9
:0A000E00E83FFF3F9F3FFF1FFF3F49
:00000001FF
